{
  "_format": "hh-sol-artifact-1",
  "contractName": "Lottery",
  "sourceName": "contracts/lottery.sol",
  "abi": [
    {
      "inputs": [],
      "stateMutability": "nonpayable",
      "type": "constructor"
    },
    {
      "inputs": [],
      "name": "enter",
      "outputs": [],
      "stateMutability": "payable",
      "type": "function"
    },
    {
      "inputs": [],
      "name": "getPlayers",
      "outputs": [
        {
          "internalType": "address[]",
          "name": "",
          "type": "address[]"
        }
      ],
      "stateMutability": "view",
      "type": "function"
    },
    {
      "inputs": [],
      "name": "manager",
      "outputs": [
        {
          "internalType": "address",
          "name": "",
          "type": "address"
        }
      ],
      "stateMutability": "view",
      "type": "function"
    },
    {
      "inputs": [],
      "name": "pickWinner",
      "outputs": [],
      "stateMutability": "payable",
      "type": "function"
    },
    {
      "inputs": [
        {
          "internalType": "uint256",
          "name": "",
          "type": "uint256"
        }
      ],
      "name": "players",
      "outputs": [
        {
          "internalType": "address",
          "name": "",
          "type": "address"
        }
      ],
      "stateMutability": "view",
      "type": "function"
    },
    {
      "inputs": [],
      "name": "winner",
      "outputs": [
        {
          "internalType": "address",
          "name": "",
          "type": "address"
        }
      ],
      "stateMutability": "view",
      "type": "function"
    }
  ],
  "bytecode": "0x608060405234801561001057600080fd5b50336000806101000a81548173ffffffffffffffffffffffffffffffffffffffff021916908373ffffffffffffffffffffffffffffffffffffffff160217905550610ae3806100606000396000f3fe6080604052600436106100555760003560e01c8063481c6a751461005a5780635d495aea146100855780638b5b9ccc1461008f578063dfbf53ae146100ba578063e97dcb62146100e5578063f71d96cb146100ef575b600080fd5b34801561006657600080fd5b5061006f61012c565b60405161007c9190610845565b60405180910390f35b61008d610150565b005b34801561009b57600080fd5b506100a46103d3565b6040516100b19190610860565b60405180910390f35b3480156100c657600080fd5b506100cf610461565b6040516100dc9190610845565b60405180910390f35b6100ed610487565b005b3480156100fb57600080fd5b5061011660048036038101906101119190610666565b610535565b6040516101239190610845565b60405180910390f35b60008054906101000a900473ffffffffffffffffffffffffffffffffffffffff1681565b60008054906101000a900473ffffffffffffffffffffffffffffffffffffffff1673ffffffffffffffffffffffffffffffffffffffff163373ffffffffffffffffffffffffffffffffffffffff16146101de576040517f08c379a00000000000000000000000000000000000000000000000000000000081526004016101d590610882565b60405180910390fd5b60006002805490506101ee610574565b6101f891906109c4565b905060028181548110610234577f4e487b7100000000000000000000000000000000000000000000000000000000600052603260045260246000fd5b9060005260206000200160009054906101000a900473ffffffffffffffffffffffffffffffffffffffff16600160006101000a81548173ffffffffffffffffffffffffffffffffffffffff021916908373ffffffffffffffffffffffffffffffffffffffff160217905550600281815481106102d9577f4e487b7100000000000000000000000000000000000000000000000000000000600052603260045260246000fd5b9060005260206000200160009054906101000a900473ffffffffffffffffffffffffffffffffffffffff1673ffffffffffffffffffffffffffffffffffffffff166108fc479081150290604051600060405180830381858888f19350505050158015610349573d6000803e3d6000fd5b50600067ffffffffffffffff81111561038b577f4e487b7100000000000000000000000000000000000000000000000000000000600052604160045260246000fd5b6040519080825280602002602001820160405280156103b95781602001602082028036833780820191505090505b50600290805190602001906103cf9291906105aa565b5050565b6060600280548060200260200160405190810160405280929190818152602001828054801561045757602002820191906000526020600020905b8160009054906101000a900473ffffffffffffffffffffffffffffffffffffffff1673ffffffffffffffffffffffffffffffffffffffff168152602001906001019080831161040d575b5050505050905090565b600160009054906101000a900473ffffffffffffffffffffffffffffffffffffffff1681565b662386f26fc1000034116104d0576040517f08c379a00000000000000000000000000000000000000000000000000000000081526004016104c7906108a2565b60405180910390fd5b6002339080600181540180825580915050600190039060005260206000200160009091909190916101000a81548173ffffffffffffffffffffffffffffffffffffffff021916908373ffffffffffffffffffffffffffffffffffffffff160217905550565b6002818154811061054557600080fd5b906000526020600020016000915054906101000a900473ffffffffffffffffffffffffffffffffffffffff1681565b60004442600260405160200161058c9392919061080c565b6040516020818303038152906040528051906020012060001c905090565b828054828255906000526020600020908101928215610623579160200282015b828111156106225782518260006101000a81548173ffffffffffffffffffffffffffffffffffffffff021916908373ffffffffffffffffffffffffffffffffffffffff160217905550916020019190600101906105ca565b5b5090506106309190610634565b5090565b5b8082111561064d576000816000905550600101610635565b5090565b60008135905061066081610a96565b92915050565b60006020828403121561067857600080fd5b600061068684828501610651565b91505092915050565b600061069b83836106bf565b60208301905092915050565b60006106b383836106dd565b60208301905092915050565b6106c881610964565b82525050565b6106d781610964565b82525050565b6106e681610964565b82525050565b60006106f7826108e7565b6107018185610917565b935061070c836108c2565b8060005b8381101561073d578151610724888261068f565b975061072f836108fd565b925050600181019050610710565b5085935050505092915050565b6000610755826108f2565b61075f8185610928565b935061076a836108d2565b8060005b838110156107a25761077f82610a24565b61078988826106a7565b97506107948361090a565b92505060018101905061076e565b5085935050505092915050565b60006107bc601583610933565b91506107c782610a44565b602082019050919050565b60006107df600983610933565b91506107ea82610a6d565b602082019050919050565b61080661080182610996565b6109ba565b82525050565b600061081882866107f5565b60208201915061082882856107f5565b602082019150610838828461074a565b9150819050949350505050565b600060208201905061085a60008301846106ce565b92915050565b6000602082019050818103600083015261087a81846106ec565b905092915050565b6000602082019050818103600083015261089b816107af565b9050919050565b600060208201905081810360008301526108bb816107d2565b9050919050565b6000819050602082019050919050565b60008190508160005260206000209050919050565b600081519050919050565b600081549050919050565b6000602082019050919050565b6000600182019050919050565b600082825260208201905092915050565b600081905092915050565b600082825260208201905092915050565b600073ffffffffffffffffffffffffffffffffffffffff82169050919050565b600061096f82610976565b9050919050565b600073ffffffffffffffffffffffffffffffffffffffff82169050919050565b6000819050919050565b60006109b36109ae83610a37565b610944565b9050919050565b6000819050919050565b60006109cf82610996565b91506109da83610996565b9250826109ea576109e96109f5565b5b828206905092915050565b7f4e487b7100000000000000000000000000000000000000000000000000000000600052601260045260246000fd5b6000610a3082546109a0565b9050919050565b60008160001c9050919050565b7f596f7520617265206e6f742061206d616e616765720000000000000000000000600082015250565b7f4c6f772063616368650000000000000000000000000000000000000000000000600082015250565b610a9f81610996565b8114610aaa57600080fd5b5056fea2646970667358221220212a2e4d041d2a0d50719eba3b8605036bf0245ebc21a7140919bb90f84ddff764736f6c63430008040033",
  "linkReferences": {},
  "deployedLinkReferences": {}
}